:020000040800F2
:10000000D00F00200D020008A90A00082B050008E7
:10001000A50A0008630300086F170008000000002D
:10002000000000000000000000000000D10F0008E8
:100030006703000800000000F70D0008C111000868
:1000400027020008270200082702000827020008EC
:1000500027020008270200082702000827020008DC
:1000600027020008270200082702000827020008CC
:1000700027020008270200082702000827020008BC
:1000800027020008270200082702000827020008AC
:10009000270200082702000827020008270200089C
:1000A000270200082702000827020008270200088C
:1000B000270200082702000827020008270200087C
:1000C000270200082702000827020008270200086C
:1000D00027020008051500088115000827020008FE
:1000E000270200082702000827020008270200084C
:1000F000270200082702000827020008270200083C
:10010000270200082702000827020008270200082B
:10011000270200082702000827020008270200081B
:10012000270200082702000827020008270200080B
:1001300000F002F800F05AF80AA090E8000C82449F
:100140008344AAF10107DA4501D100F04FF8AFF27C
:10015000090EBAE80F0013F0010F18BFFB1A43F0A5
:1001600001031847043B0000243B00000A444FF001
:10017000000C10F8013B13F0070408BF10F8014B06
:100180001D1108BF10F8015B641E05D010F8016B4B
:10019000641E01F8016BF9D113F0080F1EBF10F8AF
:1001A000014BAD1C0C1B09D16D1E58BF01F801CBD2
:1001B000FAD505E014F8016B01F8016B6D1EF9D555
:1001C0009142D6D37047000000230024002500266A
:1001D000103A28BF78C1FBD8520728BF30C148BFAA
:1001E0000B6070471FB51FBD10B510BD00F08EF835
:1001F0001146FFF7F7FF01F0FBFB00F0ACF803B48A
:10020000FFF7F2FF03BC01F081FB000009488047C3
:1002100009480047FEE7FEE7FEE7FEE7FEE7FEE7E8
:10022000FEE7FEE7FEE7FEE704480549054A064B00
:1002300070470000C511000831010008D0090020F6
:10024000D00F0020D00B0020D00B00207047831867
:1002500040EA0102F0B50E464FF001344FF00007BE
:100260009207A3F1010302D029E004C0091D051D76
:100270000A689D4206D8151B954315EAC41FF4D0A1
:1002800000E0091D0D68A5EB040C2CEA050C1CEA26
:10029000C41FF6D000E0491C0C78002CFBD198421A
:1002A00003D3984218D1077016E012F0FF0400F84B
:1002B000014B11D0120AF2E7491C00F8012B9842B9
:1002C00002D20A78002AF7D1984202D8077000E0DB
:1002D000491C08780028FBD1881BF0BD7047704787
:1002E0007047704710B500F009F8006810BD10B5F0
:1002F000044600F003F8046010BD00000048704799
:100300006C090020004870476C0900207546FFF713
:10031000F9FFAE4605006946534620F007008546C2
:1003200018B020B5FFF780FFBDE820404FF0000671
:100330004FF000074FF000084FF0000B21F00701CD
:10034000AC46ACE8C009ACE8C009ACE8C009ACE810
:10035000C0098D4670470446AFF300802046FFF782
:100360004EFF00BFFEE770472DE9F0410246002531
:100370000026002000230024002791F803C00CF081
:100380000F0591F803C00CF0100CBCF1000F03D066
:1003900091F802C04CEA050591F800C0BCF1000FCD
:1003A00031D0146800202BE04FF0010C0CFA00F360
:1003B000B1F800C00CEA03069E4220D183004FF042
:1003C0000F0C0CFA03F7BC4305FA03FC4CEA0404D7
:1003D00091F803C0BCF1280F06D14FF0010C0CFAC4
:1003E00000FCC2F814C00AE091F803C0BCF1480F49
:1003F00005D14FF0010C0CFA00FCC2F810C0401CF3
:100400000828D1D31460B1F800C0BCF1FF0F34DD6F
:10041000546800202EE000F1080C4FF0010808FAA3
:100420000CF3B1F800C00CEA03069E4221D1830010
:100430004FF00F0C0CFA03F7BC4305FA03FC4CEA2F
:10044000040491F803C0BCF1280F05D100F1080C99
:1004500008FA0CF8C2F8148091F803C0BCF1480FF8
:1004600007D100F1080C4FF0010808FA0CF8C2F8A7
:100470001080401C0828CED35460BDE8F0810000F5
:10048000F0B50A46002300240021002500F00046B4
:10049000B6F1004F02D11D4EF16901E01B4E7168AB
:1004A000C0F3034583B200F44016B6F5401F08D1EF
:1004B00021F07061154E766826F07066134F7E60ED
:1004C00012E000F48016B6F5801F06D1032606FA66
:1004D00005F4A14341F0706106E0460D360103FAD0
:1004E00006F6B14341F0706122B1460D360103FAC0
:1004F00006F6314300F00046B6F1004F02D1034E3C
:10050000F16101E0014E7160F0BD000000000140AA
:100510000246002093680B400BB1012000E0002050
:100520007047416170470161704700BFFEE70000FE
:1005300008B50121082000F06FFCC020ADF80000D4
:1005400010208DF8030003208DF80200694604484E
:10055000FFF70AFFC0210248FFF7E5FF08BD0000D2
:10056000000C014070B504461548006820F070404A
:10057000134908600846006840F0405008600020B9
:1005800010490860002517E0E0090E49091D0860C0
:100590006006040E022001F005FA01200A49C1F8A4
:1005A0009801022001F0FEF90020064908600220AF
:1005B00001F0F8F9681CC5B2082DE5DB70BD00003C
:1005C000000C0140988121420080214210B50F4863
:1005D000006820F070400D4908600846006840F04F
:1005E0004050086001200A4908600A49C1F8980192
:1005F000042001F0D7F9002005490860042001F02B
:10060000D1F900200349C1F8980110BD000C014048
:100610009C8121420080214210B50F48006820F0E3
:1006200070400D4908600846006840F0405008607E
:1006300000200A4908600A49C1F89C01042001F021
:10064000B1F90120054908600549C1F89C01042061
:1006500001F0A8F910BD0000000C01409881214272
:100660000080214210B500241448006820F070403A
:10067000124908600846006840F000400860012008
:100680000F49086001F08EF901200E49C1F8980168
:1006900001F088F907E0601CC4B2FA2C03DDFFF713
:1006A000BBFF012010BD0648803800680028F2D149
:1006B0000349091F086000BFF4E70000000C014077
:1006C0009C8121420080214208B50121042000F0D4
:1006D000A3FBC020ADF8000048208DF803000320E4
:1006E0008DF8020069460248FFF73EFE08BD000093
:1006F0000008014010B5044614B1012019490870E2
:1007000018480078E8B140211748FFF701FF20B1F1
:1007100080211548FFF7FCFE98B90A2001F01CF96A
:1007200000201049087040210F48FFF7F1FE08B97A
:10073000012010BD80210C48FFF7EAFE78B90220A5
:10074000F7E740210848FFF7E3FE012807D18021A1
:100750000548FFF7DDFE012801D10249087000209D
:10076000E7E70000240000200008014008B501214F
:10077000142000F051FB10208DF8030003208DF8A9
:1007800002004FF40050ADF8000069460F48FFF733
:10079000EBFD4FF400510D48FFF7C5FE1020ADF8FA
:1007A000000069460A48FFF7DFFD10210848FFF7FF
:1007B000BAFE2020ADF8000069460548FFF7D4FDD9
:1007C00020210348FFF7ADFE08BD000000100140E6
:1007D000000801402DE9F84300F0AAF944480079E7
:1007E000012805D10C2343A20021142000F0DAFADD
:1007F0003F480079022805D10C2340A20021142093
:1008000000F0D0FA3A480079032805D10C233EA223
:100810000021142000F0C6FA0C233DA20221002082
:1008200000F0C0FA32484079012805D10C233AA2E1
:1008300002213C2000F0B6FA2D484079022805D16B
:100840000C2336A202213C2000F0ACFA2848407963
:10085000032805D10C2333A202213C2000F0A2FA88
:100860000C2332A20421002000F09CFA0722314917
:100870003148FFF7ECFC0C232F4A0421232000F021
:1008800091FA0C232DA20621002000F08BFA1848C3
:1008900080792C4908602748801E00F037FB2A49E0
:1008A00008602848006802F049FE81462648016831
:1008B000484602F08FFE044602F06AFD0746234ACE
:1008C000234B02F069F8054601F078FF21490860E2
:1008D0000846006802F012FE04460C20042322465B
:1008E000062100901E2000F019FABDE8F8830000F0
:1008F0007C080020526F756E6400000054726961BC
:100900006E676C65000000005371756172650000D0
:10091000636F6C6F723A00005265640047726565E0
:100920006E000000426C7565000000004449533AB7
:100930000000000092080020E007002053697A655B
:100940003A000000F80700200C080020DD24068192
:1009500095430440080800202DE9F05F80E04448FA
:10096000008800F40040F8B141480088C0F30D0051
:10097000404908600020404908600CE03F483E497B
:100980000968405C3E493C4A126888543A4800680D
:10099000401C39490860384800683649096888426F
:1009A000ECDB002032490880354880783549086002
:1009B0003348C078344908603248006850383349B9
:1009C000086031480068C0F13C00314908602D4999
:1009D0000968A1F1500002F064F982462D4A2E4BBD
:1009E00002F0C6F906460F462C49088802F070F955
:1009F000804632463B4601F013FF044602F024F9DC
:100A000026490880642000F0A7FF1F490968A1F16A
:100A10003C0002F046F906461E4A1F4B02F0A8F9B8
:100A200004460D461D49091D088802F051F980460B
:100A300022462B4601F0F4FE824602F005F91749E2
:100A4000091D0880642000F087FF10480068052811
:100A500006DA0F480068052802DA05201049086008
:100A60000F48006805287FF47AAFBDE8F09F0000CA
:100A700064080020E8070020FC070020A4080020EC
:100A80007C080020F0070020F40700200008002068
:100A9000040800209A9999999999B93F380400401F
:100AA000EC07002000BFFEE77047000070B5002192
:100AB00000230F22C47804B3154C246804F4E064C6
:100AC000C4F5E064210AC1F10403CA40447804FA81
:100AD00003F184781440214309010E4C0678A15596
:100AE000047804F01F050124AC4005786D11AD00B9
:100AF00005F1E025C5F8004109E0047804F01F0580
:100B00000124AC40044D0678761145F8264070BDAE
:100B10000CED00E000E400E080E100E00249014368
:100B2000024A1160704700000000FA050CED00E079
:100B300070B5002418E004F1B000002100F04FF976
:100B40000021022000F04BF90021102000F047F9AD
:100B5000002505E00121002000F041F9681CC5B224
:100B6000802DF7DB601CC4B2082CE4DB70BD10B52F
:100B70000021AE2000F033F90021022000F02FF90F
:100B80000021102000F02BF90021402000F027F96F
:100B90000021B02000F023F90021812000F01FF98E
:100BA0000021FF2000F01BF90021A12000F017F91F
:100BB0000021A62000F013F90021A82000F00FF971
:100BC00000213F2000F00BF90021C82000F007F9B8
:100BD0000021D32000F003F90021084600F0FFF8BF
:100BE0000021D52000F0FBF80021802000F0F7F86C
:100BF0000021D82000F0F3F80021052000F0EFF8E4
:100C00000021D92000F0EBF80021F12000F0E7F8F6
:100C10000021DA2000F0E3F80021122000F0DFF8D4
:100C20000021DB2000F0DBF80021302000F0D7F8B5
:100C300000218D2000F0D3F80021142000F0CFF81F
:100C40000021AF2000F0CBF810BD70B504460D4672
:100C500005F1B000002100F0C2F8A11CC1F303119E
:100C600041F01000002100F0BAF8A11C01F00F00C3
:100C7000002100F0B4F870BD2DE9F04707460E469C
:100C80009046994600250024A8F12000C5B27F2F88
:100C900002DD0027B01CC6B2B9F1100F24D13146D5
:100CA0003846FFF7D2FF002408E004EB0511194A8B
:100CB000505C012100F093F8601CC4B2082CF4DBF6
:100CC000701CC1B23846FFF7C0FF002409E004EBF6
:100CD000051108310F4A505C012100F080F8601CBA
:100CE000C4B2082CF3DB12E031463846FFF7ADFF03
:100CF00000240AE005EB4501074A02EB4101085DCB
:100D0000012100F06CF8601CC4B2062CF2DBBDE8D7
:100D1000F087000030000020AA3900082DE9FF5FAD
:100D2000074691461E460E9D4FF0000A002435E00E
:100D3000301B401EC1B20A2000F090FFB9FBF0F05A
:100D40000A21B0FBF1F201FB1208BAF1000F14D135
:100D5000701EA04211DDB8F1000F0CD1AB4605EBBF
:100D6000DB71491001FB0471C8B22B4620220199A6
:100D7000FFF782FF10E04FF0010AAB4605EBDB7195
:100D8000491001FB0471C8B208F13001CAB22B4608
:100D90000199FFF771FF00BF601CC4B2B442C7DB0A
:100DA000BDE8FF9F2DE9F04104460F4615469846E1
:100DB00000260FE0AA5D434639462046FFF75CFF58
:100DC00004F10800C4B2782C02DD0024B81CC7B2BC
:100DD000701CC6B2A85D0028ECD1BDE8F08170B5EA
:100DE00004460D461DB1E0B200F0F1FC02E0E0B2B5
:100DF00000F0D7FC70BD704729B1064AD2690243A2
:100E0000044BDA6104E0034AD2698243014BDA61A0
:100E1000704700000010024029B1064A926902435F
:100E2000044B9A6104E0034A92698243014B9A6140
:100E3000704700000010024030B50021002200245D
:100E400000232D4D6D6805F00C0121B1042905D05A
:100E5000082923D105E0294D056022E0274D0560D2
:100E60001FE0254D6D6805F47012234D6D6805F483
:100E70008034022505EB92421CB9214D5543056093
:100E80000BE01D4D6D6805F400351DB11C4D55433B
:100E9000056002E0194D5543056002E0174D0560FD
:100EA00000BF00BF144D6D6805F0F0010909154D34
:100EB0006B5C0568DD4045600F4D6D6805F4E061D1
:100EC000090A104D6B5C4568DD4085600A4D6D6810
:100ED00005F46051C90A0B4D6B5C4568DD40C56087
:100EE000054D6D6805F44041890B074D6B5CC56885
:100EF000B5FBF3F5056130BD0010024000127A0029
:100F000000093D0066080020760800202DE9F04F1A
:100F100087B08146002400200590049000210D46F2
:100F20000E46022447E019F804006D2800D144E081
:100F300019F804002E2803D101200490059438E00C
:100F4000049808B30599601A01F0ABFE02460B46FF
:100F5000CDE9000100201D4900F08CFE07468846BF
:100F600019F80410A1F1300001F09BFE3A46434607
:100F7000CDE9020101F010FD82462A46334601F018
:100F80004FFC05460E4614E00022104B2846314621
:100F900001F0EEFE82468B4619F80410A1F13000F4
:100FA00001F07FFE074652465B4601F039FC0546DC
:100FB0000E46601C84B2082CB5DB00BF28463146C3
:100FC00001F0FCFB07B0BDE8F08F000000002440FA
:100FD0007047000010B501202E49086054E02E48EB
:100FE000008800F40040F8B12B480088C0F30D00E1
:100FF0002A49086000202A4908600CE0294828494D
:101000000968405C2849264A1268885424480068C8
:10101000401C23490860224800682049096888422A
:10102000ECDB00201C4908801A480068012807D121
:101030001E4800880A381D490880642000F08CFC96
:101040001A48008844F24071884202DC02201149AB
:10105000086010480068022807D1144800880A3048
:1010600012490880642000F077FC1048008844F69C
:101070005C11884202DD0120064908600A480079B7
:1010800010B1002003490860024800680028A6D17A
:1010900010BD0000EC07002064080020E8070020D5
:1010A000FC070020A40800207C0800203804004031
:1010B00010B500F001F810BD0CB5002001900090B3
:1010C0003348006840F480303149086000BF304840
:1010D000006800F4003000900198401C01900098D6
:1010E00018B90198B0F5A06FF1D12948006800F453
:1010F000003010B10120009001E000200090009825
:10110000012843D12348006840F0100021490860BD
:101110000846006820F0030008600846006840F0B8
:10112000020008601A48406819494860084640684B
:1011300048600846406840F480604860084640685F
:1011400020F47C1048600846406840F4E81048608D
:101150000846006840F08070086000BF0C480068D6
:1011600000F000700028F9D00948406820F0030022
:10117000074948600846406840F00200486000BFE8
:101180000348406800F00C000828F9D10CBD0000AD
:101190000010024000200240042808D14FF0E02156
:1011A000096941F004014FF0E022116107E04FF0BE
:1011B000E021096921F004014FF0E022116170473C
:1011C0007047000010B51348006840F00100114955
:1011D000086008464068104908400E4948600846C3
:1011E00000680E4908400B4908600846006820F472
:1011F000802008600846406820F4FE0048604FF4F4
:101200001F008860FFF754FF4FF00060044908603A
:1012100010BD0000001002400000FFF8FFFFF6FEC6
:1012200008ED00E030B589B005460C4601210220EA
:10123000FFF7E2FD01210920FFF7EEFD0121224821
:10124000FFF71EF918208DF823002120ADF82000AB
:1012500003208DF8220008A91C48FFF785F800201C
:10126000ADF81A00ADF81600ADF81850ADF81440FE
:1012700005A9174800F0F4F87020ADF8040001202B
:10128000ADF806000020ADF80C0001A9104800F0F0
:101290002DF801A90E4800F089F808210C4800F04B
:1012A00077F808210A4800F0D1F80121084800F039
:1012B00011F844F6530006493831088044F60C1002
:1012C000091D088009B030BD00081A00000C01405B
:1012D0000004004021B1028842F00102028004E0D3
:1012E00002884FF6FE731A400280704770B50024E2
:1012F00000220023058C4FF6EF7635400584028CE2
:101300008388048B48F6FF752C404FF6FF452C4030
:101310000D884FF6FF7606EA05252C434FF6DF755C
:101320002A400D8906EA05152A434D8806EA051567
:101330002A43154DA84202D0144DA8421DD14FF6A4
:101340007F752A404D894FF6FF7606EA05152A4338
:101350004FF6BF752A408D8806EA05152A434FF6D9
:10136000FF352B404FF2FF752B408D8906EA85052E
:101370002B43CD8906EA85052B4383800483CD88E2
:101380000587028470BD0000002C0140003401403C
:101390000A460021018B4FF2FF7319404FF6FF738D
:1013A00003EA0223194301837047000070B500244B
:1013B00000220023058C4FF6FF6635400584028C21
:1013C0008388848B4FF68F752C404FF6FC752C402C
:1013D0000D882C434FF6FF552A400D894FF6FF76B6
:1013E00006EA05252A434D8806EA05252A43154DB8
:1013F000A84202D0144DA8421DD14FF2FF752A40D9
:101400004D894FF6FF7606EA05252A434FF6FF354C
:101410002A408D8806EA05252A434EF6FF752B40A3
:101420004DF6FF752B408D8906EA05152B43CD89B6
:1014300006EA05152B4383808483CD888587028443
:1014400070BD0000002C0140003401400A4600211C
:10145000818B4FF6F7731940114381837047000069
:10146000002202881D4B98420ED01D4B98420BD093
:10147000B0F1804F08D01B4B984205D01A4B9842D0
:1014800002D01A4B984204D14FF68F731A404B8802
:101490001A43174B984207D0164B984204D04FF688
:1014A000FF431A40CB881A4302808B8883850B88C0
:1014B00003850A4B98420BD0094B984208D00E4B3B
:1014C000984205D00D4B984202D00D4B984201D165
:1014D0000B7A03860123838270470000002C0140B1
:1014E000003401400004004000080040000C0040AF
:1014F0000010004000140040004001400044014042
:101500000048014010B540F225511A4800F06BF830
:1015100070B3184800F022F9C4B21748008800F4EC
:10152000004028BB1448008800F4804030B11248C5
:10153000008840F400401049088019E05B2C06D177
:101540000D48008840F480400B49088010E00A48AC
:101550000088C0F30D0009490C5407480088401C5E
:101560000549088008460088C72801DD002008805A
:1015700010BD00000038014064080020A4080020CD
:1015800010B5094800F0EAF8C4B2442C02D100209A
:10159000064908600648054909684454034800683C
:1015A000401C0249086010BD004400402C0000208F
:1015B0009008002021B1828942F40052828104E027
:1015C00082894DF6FF731A408281704702460020DF
:1015D000B1F5007F00D100BF13880B400BB1012093
:1015E00000E00020704770B502460024002300256B
:1015F000002040F66A16B14200D100BFC1F3421587
:1016000001F01F03012606FA03F3012D02D196898A
:10161000334006E0022D02D1168A334001E0968A5B
:1016200033400C12012606FA04F41688344013B134
:101630000CB1012000E0002070BDF0B5034600248D
:1016400000260025002040F66A17B94200D100BFED
:101650001846C1F3421401F01F06012707FA06F5E8
:10166000012C01D10C3004E0022C01D1103000E03B
:1016700014301AB107682F43076002E00768AF43D0
:101680000760F0BD2DE9F04786B005460E46002400
:10169000A24600BFA1460027B08900B100BF2F4677
:1016A0002C8A4CF6FF700440F08804432C82AC89ED
:1016B0004EF6F3100440B08831890843718908431D
:1016C0000443AC81AC8A4FF6FF400440B089044328
:1016D000AC8201A8FFF7B0FB1F48874202D1DDF8BA
:1016E00010A001E0DDF80CA0A88900F4004040B192
:1016F0000AEBCA0000EB0A1031684900B0FBF1F8B0
:1017000007E00AEBCA0000EB0A1031688900B0FB61
:10171000F1F86420B8FBF0F004012009642101FB1A
:101720001089A88900F4004040B1322000EBC900C4
:10173000B0FBF1F000F00700044308E0322000EBBA
:1017400009106421B0FBF1F000F00F0004432C817C
:1017500006B0BDE8F08700000038014001468888E7
:10176000C0F308007047C1F308028280704700BFD1
:10177000FEE72DE9F04107460D461646002400BF5E
:101780000BE0295D3846FFF7EEFF00BF80213846A9
:10179000FFF71CFF0028F9D0641CB442F1DBBDE860
:1017A000F08110B50446FEF711FF7820FEF7DAFE4F
:1017B000FEF758FF0020FEF7D5FEFEF753FF204648
:1017C000FEF7D0FEFEF74EFFFEF726FF10BD10B568
:1017D0000446FEF7FBFE7820FEF7C4FEFEF742FF4C
:1017E0004020FEF7BFFEFEF73DFF2046FEF7BAFEA3
:1017F000FEF738FFFEF710FF10BD490050EAC12088
:1018000018BF04204A0D18BF40F0010040F2FF72DB
:10181000B2EB515F08BF40F00200012808BF05206D
:1018200070472DE9F0414F1E00EBC7010446D1E996
:10183000000115461E4637F006020DD02A463346F3
:1018400001F096FA7F1E04EBC703D3E9002300F0F2
:10185000E7FF37F00602F1D1022F25D0042F13D075
:10186000062F18BFBDE8F0812A46334601F080FA02
:10187000D4E90A2300F0D4FF2A46334601F078FA6F
:10188000D4E9082300F0CCFF2A46334601F070FA71
:10189000D4E9062300F0C4FF2A46334601F068FA73
:1018A000D4E9042300F0BCFF2A46334601F060FA75
:1018B000D4E9022300F0B4FF2A46334601F058FA77
:1018C000D4E90023BDE8F04100F0AABF002213468E
:1018D0001046014901F060B80000F03F00F0A0BFE1
:1018E000002213461046114601F056B840F201326C
:1018F00000204FF0E04102F012B80000024A002040
:10190000110702F00CB8000001FDFFFF014600BF07
:101910007047000010B56FF00400FFF73DFC0A4867
:1019200000680A49B0FBF1F00949087008460078E0
:1019300000EB4001C1EBC0104FF6FF7101EAC0009F
:101940000449088010BD00001000002000127A0039
:101950005C0800205E0800200146114A12884A43B4
:101960004FF0E0235A6100229A611A46126942F050
:1019700001021A6100BF4FF0E022106900F001027D
:101980001AB100F48032002AF5D04FF0E02212693B
:1019900022F001024FF0E0231A6100229A617047A1
:1019A0005E0800200146114A12784A434FF0E023B6
:1019B0005A6100229A611A46126942F001021A61C4
:1019C00000BF4FF0E022106900F001021AB100F4EC
:1019D0008032002AF5D04FF0E022126922F0010295
:1019E0004FF0E0231A6100229A6170475C080020E2
:1019F00008B5FFF78FFF4FF4A060FFF78FF84FF4A3
:101A0000164000F039FE4FF4165000F087FEFEF746
:101A1000ADFEFEF759FE482144F61F60FFF702FCB9
:101A2000FEF786FDFFF7A3F8FFF782F84FF47A7010
:101A3000FFF792FFFBE00020FEF75CFE0646012E5A
:101A400079D100243BE07A48008800F4004078B166
:101A500077480088C0F30D08002504E07548405D14
:101A6000754948556D1C4545F8DB002070490880D4
:101A7000032272497248FFF77CFE4FF4FA70FFF7B9
:101A80006BFFFEF7A7FE6F496F48006801F06EFD1F
:101A900013D26E496C48006801F068FE0DD23846DA
:101AA00001F04CFD824668480168504601F09CFCFC
:101AB000814601F007FD074600E0641E641C0A2C05
:101AC000C1DB0A2097FBF0F9484601F037FD5E497B
:101AD00008600846006801F011FD81460C200423CF
:101AE0004A46062100901E20FFF718F9002700241F
:101AF00016E001205649086000205649C1F89001BF
:101B00004FF49670FFF728FF00205149086001202C
:101B10005049C1F890014FF49670FFF71DFF641C07
:101B2000032CE6DB05224C494548FFF722FE4FF423
:101B3000FA70FFF711FF022E79D1FFF74BFAFEF78B
:101B40000BFF00243BE03A48008800F4004078B1E5
:101B500037480088C0F30D08002504E03548405D93
:101B6000354948556D1C4545F8DB00203049088053
:101B7000032232493248FFF7FCFD4FF4FA70FFF7B9
:101B8000EBFEFEF727FE2F492F48006801F0EEFC20
:101B900013D22E492C48006801F0E8FD0DD23846DA
:101BA00001F0CCFC824628480168504601F01CFC3C
:101BB000814601F087FC074600E0641E641C0A2C85
:101BC000C1DB0A2097FBF0F9484601F0B7FC1E493B
:101BD00008600846006801F091FC81460C2004234F
:101BE0004A46062100901E20FFF798F8002700249F
:101BF00016E001201649086000201649C1F890013E
:101C00004FF49670FFF7A8FE0020114908600120EC
:101C10001049C1F890014FF49670FFF79DFE641CC7
:101C2000032CE6DB05220C490548FFF7A2FD02E77D
:101C300064080020A40800207C0800200600002082
:101C40000044004000003442080800200000C84161
:101C500094012142000021420A00002010B50246F2
:101C6000012000E050430B00A1F10104E1B2F9D1E1
:101C700010BD00002DE9F04D16460F4694B01C46ED
:101C800021F0004123F00042002814BF4FF0010C66
:101C90004FF0000C0CEB470CFE4B0CEB03054FEA2E
:101CA000630C65452BD3350018BF012505EB4405B2
:101CB0001D44F94B9D4222D3F84B52EA060C02D048
:101CC0009F4205D148B914B000201946BDE8F08DF7
:101CD000002808BF4FF0000C01D04FF0010C0CEBB6
:101CE000470313F5001F0AD8002E14BF4FF0010C54
:101CF0004FF0000C0CEB440313F5001F07D914B090
:101D0000324623463946BDE8F04DFFF7E7BDDFF820
:101D100090834FF0000A002FB8BF424523DAE14B11
:101D20009A42A8BF4FF0020A1DDADC4B93421ADC3C
:101D3000DD4B03EB2253142B08DDC3F1340C26FAE0
:101D40000CF303FA0CFCB4450DD108E05EB9C3F105
:101D5000140C22FA0CF303FA0CFC944503D103F0A3
:101D60000103C3F1020A51EA00031BD1002C19DA66
:101D7000002F18BFBAF1020F02D0BAF1010F07D03D
:101D80000220FEF7B4FA14B0BDE8F04DFFF79EBD97
:101D90000220FEF7ACFAFFF799FD14B081F0004184
:101DA000BDE8F08D330070D1424525D107F1804266
:101DB00012F5801201BF00280020B84914B008BFF6
:101DC000BDE8F08DB548884207DC002CA1BF18465D
:101DD000214614B0BDE8F08D07E0002CBFBF1846C7
:101DE00084F0004114B0BDE8F08DB0497944D1E9E8
:101DF000000114B0BDE8F08DDFF8A0C262452AD121
:101E0000002C24DA39B1414517D1002804BF002045
:101E100002461CD106E040B10220FEF768FAFFF747
:101E200065FD0A46394600F0D7BA9D4A394614B0D6
:101E3000002062F31E01BDE8F08D08DA14B03B46C5
:101E4000BDE8F04D02460020614600F0A5BD14B08B
:101E50003946BDE8F08D414517DAB4F1804F0CD01A
:101E6000A4F10053B3F1FF530FD13B1E0DDB14B0AF
:101E70001946BDE8F04D00F0D9BB3B4614B0024610
:101E8000BDE8F04D194600F073BF050027F0004390
:101E90003AD1E1B1414537D1002F06DD002CA1BF79
:101EA0000020414614B0BDE8F08D002F01DD002C6C
:101EB0001FDB002F16DA002C14DBBAF1010F4FF0F4
:101EC000000014BF76497A4914B0BDE8F08DBAF12C
:101ED000020F18BF002F0CD0BAF1010F09D1002F4B
:101EE00007DA0BE0002FB8BF002C0DDABAF1010FB2
:101EF00004D0002014B00146BDE8F08D14B00020DD
:101F00004FF00041BDE8F08D4FF0010808EBE77C91
:101F1000CDF814C05CEA0A0C0DD0DFF898C1624518
:101F20007EDDDFF894C1654B624512DD8B420ADB32
:101F3000002C18DB23E00120FEF7D9F914B0BDE82E
:101F4000F04DFFF7CDBC554A8A4202DC002C0ADC7A
:101F500015E0994202DA002C11DA04E04F4B994265
:101F600019DD002C0BDD0220FEF7C1F9FFF7BEFCE6
:101F70004B4A14B061F31E021146BDE8F08D0220F9
:101F8000FEF7B5F9FFF7BAFC444A14B061F31E023C
:101F90001146BDE8F08D0022394601F00FF90746E1
:101FA0000D466FF0010201F0BAFC4FF05532444B80
:101FB00001F012F83A462B4600F0DAFE0022414BBF
:101FC00001F00AF880468B463A462B4610461946E1
:101FD00000F0CEFE42465B4600F0CAFE88460E90F8
:101FE0004FF0C042384B3846294600F0C1FE8346C8
:101FF0000091364A344B41460E9800F0B9FE8046B7
:102000000191334A334B3846294600F0B1FE42462F
:10201000019B01F0D3F80D4602460B460C9000E000
:1020200011E05846009900F0FBFB002788465A460D
:102030003846009B01F0C2F82B460C9A00F0CCFF0A
:10204000024600F079B90020B1F5801F07DA352289
:102050002846194601F063FC05466FF0340000EB9A
:102060002150A0F2FF300190C1F3130040F07F61D6
:1020700041F04051029118498842D8BF4FF0000BFF
:1020800035DD16498142C8BF4FF0010B2FDC4FF000
:10209000000B25E0FFFF1F00FFFF0F000000F03FD7
:1020A0000000F07F0000404301FCFFFF701E0000B5
:1020B0000000F0FF0000E0410000F043FFFFEF3FB1
:1020C0005555D53F0000E03F4715F73FFE822B6591
:1020D00044DF5DF80BAE543E8E9803007AB60B00D9
:1020E0000198401C01900298A0F580100290FF48D2
:1020F0000299784400EBCB000991D0E900232846EF
:102100000B93129201F05AF800910A9028460B9B0B
:10211000129A099900F084FB02460B460020F4490C
:1021200000F03AFCCDE90C010B46024600990A98F2
:1021300000F01EFE0690EF4888460027784402997A
:10214000006810904FF0005040EA610000EB8B40B7
:1021500000F5002102910B9B129A109801F02EF8C5
:102160002A46099B00F038FF3A46434600F000FE3D
:102170000891129038464146029B109A00F0F8FDF3
:10218000009B0A9A00F028FF089B129A01F016F8AB
:10219000DDE90C2300F0ECFD0B91069A129043460A
:1021A0001046194600F0E4FD05460246D2480B46AB
:1021B0000A9106217844FFF734FB0A9B2A460891CE
:1021C00002901046194600F0D3FD089B029A00F0D9
:1021D000CFFD05460991434638461946069A00F058
:1021E0001FFB0B9B129A00F0C3FD2A46099B00F0CF
:1021F00017FBCDE908013A4643461046194600F060
:10220000B7FD0A910022BD4B009000F009FBDDE90B
:10221000082300F005FB0D463A46B84B384600F05F
:10222000CDFF0A9B009A00F0C9FFDDE9082300F00A
:10223000D3FECDE908013A462B461046414600F050
:1022400097FD00910A90DDE908014346069A00F0E7
:102250008FFD069088462B463A460B99129800F05F
:1022600087FD4346069A00F0DBFA80460B4602469D
:102270000D9100990A9800F0D3FA00200F46054608
:10228000009B0A9A00F09AFF42460D9B00F0A4FEC4
:1022900088460E904FF06042994B2846394600F030
:1022A00067FD02910090974A954B41460E9800F0C9
:1022B0005FFD80460391944A944B2846394600F0CE
:1022C00057FD4246039B00F0ABFA914A7A4402EB79
:1022D000CB03D3E9002300F0A3FA05460791019848
:1022E00000F0DFFC0C9003912A46079B02990098AE
:1022F00000F096FA874A7A4402EBCB03D3E9002335
:102300009346019300F08CFA039B0C9A00F088FA34
:10231000002788463846039B0C9A00F04FFF5A4628
:10232000019B00F04BFF029B009A00F047FF2A46FA
:10233000079B00F051FE02460020069005986C4D68
:10234000AAF10103184301D1734D069000200B46FA
:1023500004903046214600F00BFD82468B46234612
:1023600030461946049A00F029FF3A46434600F0E9
:10237000FFFC52465B4600F053FA06468A463A4650
:1023800043462146049800F0F3FC04460F463246CB
:10239000534600F045FA614A8B46914221DBABEB94
:1023A000020353EA000210D122463B4600F006FF2A
:1023B000804603915A4A5B4B3046514600F030FA52
:1023C0004246039B00F0D2FD27D20220FDF78FFF8B
:1023D000FFF78CFA0A46294614B062F31E01BDE8E5
:1023E000F08D514B2BF000429A4216D34F4A0BEB23
:1023F000020353EA000208D122463B4600F0DEFE0B
:102400003246534600F0B2FD07D80220FDF76FFFB9
:10241000FFF774FA0A462946DEE72BF000404449EC
:10242000444A01EB20514FF00008824223DA481C55
:102430004FF4801121FA00F058443F4AC0F30A518A
:102440007A443E4BA1F2FF31CB4020EA0303C0F3B4
:10245000130040F4801CC1F1140012682CFA00F83B
:10246000BBF1000FB8BFC8F100082046394600F0A4
:10247000A5FE04460F4622463B463046514600F034
:10248000CFF94FF0000B5A462D4B5846039100F000
:102490006FFC00910A902B4A2B4B5846039900F091
:1024A00067FC0491029022463B465846039900F08F
:1024B00085FE3246534600F08FFD244A244B00F03F
:1024C00057FC049B029A00F0ABF907468A46009B32
:1024D0000A9A00F0A5F904460E46009B0A9A00F0FD
:1024E0006DFE3A46534600F077FD33E0E21A0000F5
:1024F0000000F03F201B0000501A000000000840C0
:1025000009C7EE3FFD033ADCF5015B14E02F3EBE48
:1025100028190000EE1800000000F0BF00009040F5
:10252000FE822B654715973C00CC904000346F3FEE
:1025300001FCFFFF0000E03F1C180000FFFF0F0040
:10254000432EE63F396CA80C615C20BEEF39FAFEE1
:10255000422EE63F0746224633460F911046194663
:1025600000F006FC834602462E488A460B460521AB
:102570007844FFF756F95A46534600F0F9FB2246D5
:10258000334600F029FD82468B463A4620463146C6
:102590000F9B00F0EDFB3A460F9B00F041F90F4610
:1025A0000A9000224FF080435046594600F006FE44
:1025B0000391009052465B462046314600F0D8FB1E
:1025C000039B009A00F0E8F93B460A9A00F0F6FDFA
:1025D0002246334600F0F2FD0022134B00F0FCFCD3
:1025E0000E46044601EB08510815002810DC42464F
:1025F0002046314601F093F9FFF7FFF8042808BFA1
:10260000FFF77CF942462046314601F088F904463E
:1026100006980B4614B022462946BDE8F04D00F05E
:10262000A7BB0000C41600000000F03F2DE9F041F8
:1026300006460F4600F0DCFC04000D4618BF0120E2
:10264000284320F00040C0F17F6000F1E040C00F5F
:102650000ED0301C18BF0120384320F00040C0F1DC
:102660007F6000F1E040C00F04BF0120FDF73FFE96
:1026700020462946BDE8F08110B586B00446012108
:102680004804FEF7B9FB01210420FEF7C5FB042036
:10269000ADF8140003208DF8160018208DF81700EF
:1026A00005A91C48FDF760FE0820ADF814000420C1
:1026B0008DF8170005A91748FDF756FE26208DF85E
:1026C000000003208DF801008DF8020001208DF834
:1026D00003006846FEF7EAF901940020ADF808000F
:1026E000ADF80A00ADF80C00ADF810000C20ADF804
:1026F0000E0001A90848FEF7C5FF012240F225514E
:102700000548FEF79AFF01210348FEF753FF06B084
:1027100010BD0000000801400044004010B586B024
:102720000446012144F20400FEF776FB4FF40070EA
:10273000ADF8140003208DF8160018208DF817004E
:1027400005A91C48FDF710FE4FF48060ADF8140099
:1027500004208DF8170005A91648FDF705FE252071
:102760008DF8000003208DF801008DF80200012093
:102770008DF803006846FEF799F901940020ADF842
:102780000800ADF80A00ADF80C00ADF810000C2000
:10279000ADF80E0001A90848FEF774FF012240F2CF
:1027A00025510548FEF749FF01210348FEF702FFC6
:1027B00006B010BD000801400038014021F0004281
:1027C000A2F16052B2F5801F01F0004328BFD2F1A0
:1027D0007F6C0BD95FEA001C43EAC20242EB5070E7
:1027E00018BF704728BF20F001007047B2F5801F66
:1027F000BCBF184670474FEA410C1CF5001F02D2BF
:10280000084600F0AEBF70B500F05CFB0000008928
:10281000FFF7F6BF4FF00040A0F5800070470000C2
:1028200010B591EA030F48BF83F0004300F1CE8456
:10283000841A71EB030C05D2121943EB0C03001B35
:1028400061EB0C01DFF824E14FEA1154A4EB135CB7
:102850001EEA430F18BF9EEA445F73D023EA0E03BB
:10286000DCF1200E21EA045143F4801332D322FA22
:102870000CFE10EB0E0023FA0CFE41EB0E01CCF126
:10288000200E03FA0EFE10EB0E0051F10001B1F51F
:10289000801FCCF1200E32D201EB045112FA0EF25D
:1028A000BDE8104058BF7047401C38BF5FEA420285
:1028B00018BF7047002814BF20F0010041F100014B
:1028C0004FEA410313F5001F38BF7047A1F1C04123
:1028D00000F046BB012A43EB0302ACF1200CDCF113
:1028E0001F0E32BF4FF0000E23FA0CF310EB030063
:1028F00041EB0451B4EB115FD0D0A1EB045101F5D1
:10290000801149085FEA300001EB04510ED350F109
:10291000000038BF12FA0EFE08D1BDE81040C9E72A
:10292000401C38BF5FEA4202CAD1C3E7BDE810408D
:102930004FEA410313F5001F38BF7047A1F1C041B2
:1029400000F00EBB9EEA445F08D011EA5E0FBDE8BE
:10295000104004BF01F0004100207047BDE8104066
:1029600070B500F0AFFA00BF64FBBE3E0000E0FFB0
:1029700002494FF0000000F0A0BF00BF0000F87F48
:10298000491058BFC1F140415B1058BFC3F14043EB
:102990008B42EFF3008070472DE9C04130B4DFF87F
:1029A000A0C23CEA111418BF3CEA131400F0EC80FA
:1029B00081EA03051CEA111444EAD57418BF1CEA25
:1029C000131500F0C780A4EB05044FF0004545EA5D
:1029D000C12145EAC32341EA505143EA525304F16D
:1029E0007F74994204F500344FEAC0204FEAC222B6
:1029F00008BF904200F09C804FEA13650FF240162A
:102A0000765D4FEA134506FB05F7C7F1807706FBB5
:102A100007F74FEAD737A7FB03687642C8F5803837
:102A2000A7FB06CE38BFA8F1010807FB08E64FF068
:102A3000000EA6FB028CE6FB03CEDCF1000CCEF10F
:102A4000004E38BFAEF1010EA6FB0C584FF0000748
:102A50004FF00005E6FB0E87A1FB08C6A0FB07CEE2
:102A600016EB0E0645F10005E1FB076515F1E04E9A
:102A70007EBFA4F580345FEA46066D4116F18007FB
:102A800045F100054FEA17274FEA066647EA056752
:102A9000A6F1DE46B6F1805F4FEA15251FD938460C
:102AA00024F0010C05EBC471BCF1FE6F01EB0C11BD
:102AB00002D8F0BCBDE8008124425CBF01F5801E55
:102AC0009EEAC47F02D4F0BCBDE80081244238D421
:102AD000F0BCA1F1C041BDE8004100F041BA4FEAAD
:102AE000D22242EA43524FEAD323A7FB02864FEA9F
:102AF000D02040EA415007FB03661EEA0E0F4FEA62
:102B0000D12105FB026658BFA6EB0056B6EB005676
:102B10004FEA520E4EEAC37E18EB0E0E56EB530EE2
:102B2000BDD518EB02085E417F1C55F10005B6E7E4
:102B30004FF480154FF000074FF000064FF00008EB
:102B4000ADE7F0BC4FF0000001F1C04101F00041E1
:102B5000BDE8008111EA0C1F0CEA131500D00CE04F
:102B600013EA0C1F00F025804FF00000F0BC81EA52
:102B7000030101F00041BDE80081F0BCBDE8004167
:102B800081EA030100F0ECB9F0BCBDE8004170B58A
:102B900000F098F9097EFC3E00F007B881EA0301D5
:102BA0004FF0000001F00041704781EA030100F09E
:102BB000D7B9F0BCBDE800414FF000002149704793
:102BC000FFFDFBF9F7F5F4F2F0EEEDEBE9E8E6E4F2
:102BD000E3E1E0DEDDDBDAD8D7D5D4D3D1D0CFCD79
:102BE000CCCBCAC8C7C6C5C4C2C1C0BFBEBDBCBBB2
:102BF000BAB9B8B7B6B5B4B3B2B1B0AFAEADACABAD
:102C0000AAA9A8A8A7A6A5A4A3A3A2A1A09F9F9E86
:102C10009D9C9C9B9A999998979796959594939338
:102C2000929191908F8F8E8E8D8C8C8B8B8A8989CF
:102C30008888878786858584848383828281818052
:102C40000000FF070000F87F4FEA1153A3F58063EF
:102C5000D3F11E03A8BFD3F1200C08DB4FF00042D4
:102C600042EAC12252EA505232FA03F07047094256
:102C70000BD4102BC4BF0020704703F5787CBCF147
:102C8000FF3F05D04FF0FF3070474FF00000704716
:102C900070B500F017F900BF4992248000207047FA
:102CA000F0E710F0004248BF4042B0FA80F310FA5B
:102CB00003F10AD0C3F11D0303F580634FEA4150CD
:102CC00002EB035202EBD12170474FF00000704736
:102CD000B0FA80F310FA03F10AD0C3F11D0303F533
:102CE00080634FEA41504FEA035202EBD121704713
:102CF0004FF000007047000051EA030C17D41CF598
:102D0000801F58BFBCF5801F00F10680994218BF94
:102D1000704708BF9042704707D711F5801F58BF12
:102D200013F5801F19D499427047894270471CF5EA
:102D3000801F08D5BCF5801FF7D58B4218BF7047A0
:102D400008BF824270474FF4001C1CEB410F38BF94
:102D50001CEB430F01D28B42704770B500F0B2F804
:102D6000922449004FF000514FF08053FFF708BE06
:102D7000DFF848C170B51CEA111E1EBF1CEA13150E
:102D80009EEA0C0F95EA0C0F00F06F8081EA0304B5
:102D900023EA4C134EEAD47E21EA4C1141F480110F
:102DA00043F48013AE44A1FB024CA0FB0365AEF1DB
:102DB0007F7E361955EB0C05A1FB034C4CF100034B
:102DC000A0FB021C16EB0C06654153F100030942FF
:102DD00018BF46F0010613F4007F0BD14FEA033110
:102DE0004FEA0530340341EA155140EA16506FF0BE
:102DF00003020AE04FEAC3214FEAC520F40241EA88
:102E0000555140EA56506FF0020202EB2E4201EBA0
:102E1000025585EACE710AD05FEA440C18BF24F04F
:102E2000004450F1000041F1000120EAD47040F26A
:102E3000FE7C624500D270BDA84214BF4FF08044B2
:102E40004FF04044002E08BF0024BEF1806FA8BFA1
:102E5000A1F1C041BDE8704080F282804FF00000D7
:102E600001F1C04101F0004170479EEA0C0F0CEAED
:102E7000131518BF95EA0C0F06D04FF0000081EA39
:102E8000030E0EF0004170BD00F01CF88900013EF9
:102E900000F007B800F009B84FEA430C5FEA5C5C49
:102EA00008D081EA030100F05BB84FEA410C5FEA09
:102EB0005C5CF6D14FF00000014970470000FF074D
:102EC0000000F87F0EF1020E2EF0030E5EF8046B88
:102ED000364205D4012A43EB030515F5001F12D82D
:102EE000012841EB010C1CF5001F0CD80ED14FEA54
:102EF000D17C15F5001F0CEB4C0C0CF1020C08BF3B
:102F00004CEBD37C04E04FF0080C01E04FEAD37C9B
:102F10000CEB4C0526FA05F606F00706B6F1040C94
:102F200006D20EEB860CBDE870404CF0010C6047F9
:102F3000DFE80CF0090B02024FF000414FF00000F7
:102F4000A1F5002170BD19461046012851EB01047E
:102F500018BFD4F5001484BF002001F0004170BDFB
:102F60000808A0F500114FEA3101704753EA010C3F
:102F700017D41CF5801F58BFBCF5801F00F10680D8
:102F80008B4218BF704708BF8242704707D713F5BE
:102F9000801F58BF11F5801F19D48B4270479B4288
:102FA00070471CF5801F08D5BCF5801FF7D59942E6
:102FB00018BF704708BF904270474FF4001C1CEBCD
:102FC000430F38BF1CEB410F01D2994270470FB439
:102FD0000CBC03BCFFF7C1BE91EA030F10B581F032
:102FE00000413FF525AC83F0004300F0EFB800004E
:102FF0002DE9F04101F5801CBCF5001FC0F2C38033
:103000004FEA115C21EA0C510CF1FD0C41F48011E6
:103010005FEA5C0C0CF5C07C01D3400049413DA443
:10302000890241EA905187028E0E0A0CA45D04FBCE
:1030300004F602FB06F6C6F14046A4FB0662F60D56
:1030400046EA422606FB06F4A4FB01235242C3F1E2
:10305000404338BF5B1EA6FB02420024E6FB03246C
:10306000D20B42EA4446A6FB0623A1FB02E2A3FBE5
:1030700007E4A4184FF0000252F10002E3FB014202
:103080006442C2F1404E38BFAEF1010EA6FB0423EC
:103090004FF00002E6FB0E32A2FB03464FF00004A5
:1030A000B61954F10004E2FB0264A1FB06E6A4FB9E
:1030B00007E816EB08064FF0000858F10008E4FB9B
:1030C00001687642C8F1405838BFA8F10108A2FB58
:1030D00006E4A3FB08E52D194FF0000454F10004A9
:1030E000E2FB0854A1FB05E6A7FB04E818EB060881
:1030F0004FF0000656F10006E1FB048618F12005AA
:1031000056F10006A809A8F11B08B10908F03F080C
:10311000B8F10A0F40EA86601CD901EB0C51BDE8FA
:10312000F08100BFFCF5EEE8E2DDD8D3CFCBC7C31A
:10313000C0BDB9B6B4B1AEACA9A7A5A3A19F9D9BD4
:103140009A9896959392908F8D8C8B898887868597
:1031500084838281A0FB006800FB01F208EB420837
:10316000B8EB872807D5341858EB0104D5D5401C97
:1031700051F10001D1E7341A78EB0104CDD4401E9F
:1031800071F10001C9E75FEA4C0C5FEA9C5C0DD16C
:1031900005D34FF0000001F00041BDE8F081BDE82B
:1031A000F04170B5FFF78EFE6DDBFFBEBDE8F0416C
:1031B0004FF00000004970470000F87F10B591EA19
:1031C000030F48BF83F000433FF532AB841A71EB25
:1031D000030C07D212198CF0004C43EB0C03001BBC
:1031E00061EB0C01DFF8A4E14FEA1154A4EB135C8E
:1031F0001EEA430F18BF9EEA445F00F0B08023EA46
:103200006E03524221EA0451C3EB6E0338BF5B1ECA
:10321000DCF1200E25D322FA0CFE10EB0E0043FA4F
:103220000CFE41EB0E01CCF1200E03FA0EFE10EB6A
:103230000E0051F10001CCF1200E29D412FA0EF249
:1032400001EB0451BDE8104058BF7047401C1CBF43
:10325000B2F1004F704700280CBF491C20F001005C
:10326000704712EB020E43EB030218BF4FF0010E42
:103270004EEA4202ACF1200CDCF11E0E54D943FAA6
:103280000CFE10EB0E0051F1FF31CCF11E0ED5D526
:103290000EF1010E12FA0EFE404141EB010101EB6D
:1032A000445C5FEA5C5C10D910EBDE7001EB04510A
:1032B00038BFBEF1004FBDE8104018BF704700286E
:1032C0000CBF491C20F00100704730D24FEAD42CCB
:1032D00011F5001124F400641BD0B1FA81F20B3A0D
:1032E000A41AA41ED2F12003914030FA03F319432B
:1032F000904001EBCC71002C01EB0451BDE8104073
:10330000A8BF704701F1C0414FF0000001F000413B
:103310007047B0FA80F310FA03F100D110BDE41A3F
:10332000173C4805C90AE4E701EB045110BD4910F8
:1033300001EB0451BDE810404FEA300002E04FF0CD
:10334000000170474A0008BF0042F8D0B2F5001FE4
:1033500028BF704701F000414FF0000070479EEA1F
:10336000445F07D011EA5E0FBDE8104004BF0021A2
:1033700000207047BDE8104070B5FFF7A3FD00BF07
:1033800040DFF63E83F00041104670470000E0FF4A
:1033900043004FEAD30C4FEA3C0C43401FBF4007A9
:1033A0000CF1605113F0FE4F70471CF0006F03D119
:1033B00000200CF0004170470CF0004343EA5070CD
:1033C00010B540EACC0000F086F900BF0000009282
:1033D0004FEA0001FFF7C4BD4FF000414FF000007D
:1033E000A1F500217047000090EA010F48BF81F06D
:1033F000004100F1F481421A3CBF801A89184FEA5B
:10340000D0524FF07F4C1CEA410FA2EBD15318BFB2
:103410009CEA026F00F03B804FF0004C4CEA002029
:103420004CEA012121FA03FC10EB0C0C1ED202F134
:10343000FF325FEA1C2040EBC25038BF70471CF0DF
:103440007F0F4FEA400C18BFBCF17F4F38BF704769
:10345000C3F12003994008BF20F00100BCF17F4F69
:1034600038BF7047A0F1C04000F07BB94FEA3C0084
:10347000000A40EBC25028BF1CF0FF0F4FEA400C7F
:10348000E6D018BFBCF17F4F38BF7047EAE79CEA2F
:10349000026F05D010EA5C0F08BF00F000407047D3
:1034A00010B500F018F900BF64FBBE3E401058BFD5
:1034B000C0F14040491058BFC1F140418142EFF393
:1034C0000080704741000B0ED3F19E0208D950F4E2
:1034D00000034FEA032323FA02F048BF404270473B
:1034E00010B500F0F8F800BF499224800020704722
:1034F0006FF0004282EA200070470000C10DD1F158
:103500009E0206DB4FEA002343F0004323FA02F059
:103510007047004207D54FEA4001B1F1FE4F02D299
:103520004FF00000704710B500F0D5F849922480A4
:10353000002070476FEA20007047000010F0004143
:1035400048BF4042B0FA80F310FA03F2C3F19D0382
:103550000BD051EAC35101EB1220530638BF70471C
:1035600000F1010008BF20F00100704750EA010C93
:1035700000F113801CF5000F58BFBCF5000F01D4FB
:103580008842704707D710F5000F58BF11F5000F9C
:1035900015D488427047894270471CF5000F04D546
:1035A000BCF5000FF7D5814270474FF0807C1CEBD3
:1035B000400F38BF1CEB410F01D28142704710B55C
:1035C00000F089F8922449004FF000504FF08051EC
:1035D000FFF76CBF4FF47F0C1CEAD0121EBF1CEA31
:1035E000D11392EA0C0F93EA0C0F00F0478090EA97
:1035F000010F48BF42F480724FF0004C4CEA0020AB
:103600004CEA012102EB0302A0FB0113A2F5000228
:10361000002918BF43F001035B0028BF4FEA3303C2
:1036200042EB22425FEA132C4CEBC2502EBFBCEBA4
:10363000436FB2F57C0F70474FEA036CBCF1004F4B
:1036400008BF20F00100B2F57C0F38BF70470BD5E2
:1036500082F0FF0212F5803FC8BF704700F1C04002
:10366000D8BF00F00040704700F5000C5FEA4C0C3A
:1036700048BF7047B0F1C04000F073B890EA010F46
:103680000CEAD11348BF42F48072624538BF6345EB
:1036900004D280EA010000F00040704710B500F04D
:1036A0001AF800BF8900013E00F007B800F009B821
:1036B0005FEA410C5FEA1C6C08D080EA010000F070
:1036C00050B85FEA400C5FEA1C6CF6D14FF0004046
:1036D000A0F5800070470EF1020E2EF0030E5EF88A
:1036E000044B244204D44FEA4102B2F17F4F11D877
:1036F0004FEA4003B3F17F4F0CD80ED14FEAD07C94
:10370000B2F17F4F0CEB4C0C0CF1020C08BF4CEBF0
:10371000D17C04E04FF0080C01E04FEAD17C0CEBC7
:103720004C0324FA03F404F00704B4F1040C06D2A9
:103730000EEB840CBDE810404CF0010C6047DFE854
:103740000CF0070802024FF00040A0F5800010BD09
:103750000846420018BFD2F1807288BF00F00040D6
:1037600010BDFF2141EAD050C005704751EA000C5E
:1037700000F113801CF5000F58BFBCF5000F01D4F9
:103780008142704707D711F5000F58BF10F5000FA1
:1037900015D481427047894270471CF5000F04D54B
:1037A000BCF5000FF7D5884270474FF0807C1CEBCA
:1037B000410F38BF1CEB400F01D28842704780EAAE
:1037C000010081EA000180EA0100FFF7F8BE000075
:1037D00090EA010F48BF81F000413FF50CAE421A5C
:1037E00004D882F00042A0EB020011444FEAD0520C
:1037F0004FF07F4C1CEA410FA2EBD15318BF9CEA5B
:10380000026F4AD04FF0004C4CEA00204CEA0121F4
:1038100021FA03FCB0EB0C0C0FD412F0FE0F36D0E3
:103820005FEA4C001DD5001240EBC25038BF704714
:103830001CF03F0F18BF70470BE0A2F101025FEAD6
:103840001C2040EBC25038BF70471CF07F0F18BFE0
:103850007047C3F12003994014BF401E20F00100BF
:10386000704780084FEA122308BF7047B0FA80FC07
:10387000A2EB0C02CCF1280C60FA0CF093EA122FA8
:1038800004BF00EBC25070474FEAC3707047130A81
:103890005FEADC1008BF7047F6E79CEA026F04D0CD
:1038A00010EA5C0F08BF0020704710B5FFF713FF48
:1038B00040DFF63E81F0004070470CF00F03092B0B
:1038C00008BF082000F059800A2B0BD0082B18BF26
:1038D000704708BF1CF0400F0AD04FF000004FF0B7
:1038E000000170471CF0400F18BF4FF000407047B8
:1038F0001CF0100F08D020F0704300F07F4242EA25
:10390000D3014FEA4370704700F0604021F07F42DE
:1039100042EA000201F07F4040EA727070474FF0C7
:10392000FF0C4CF4E06C1CEA11531CBF9CEA030C26
:103930009445C2BFDA4201EB02517047002B0DD013
:10394000BCF1000F0FD0002A01F00041A4BF41F0EC
:10395000E04141F07F614FF00000704701F000410D
:103960004FF00000704750EA01334FF09B0C18BF36
:103970004CF0806C7EF4FCAF70471CF4801F11D0BB
:103980001CF4E02F03D06FEACC31490070474FF0B0
:103990004050EFF3008222F0704242EA000282F3CC
:1039A000008870474FF000007047000000000000E2
:1039B0000000002F000000000700070000147F1423
:1039C0007F1400242A7F2A12006264081323003621
:1039D0004955225000000503000000001C22410050
:1039E000000041221C000014083E08140008083E94
:1039F0000808000000A0600000080808080800008F
:103A000060600000002010080402003E5149453E5D
:103A10000000427F4000004261514946002141457B
:103A20004B31001814127F10002745454539003CE2
:103A30004A494930000171090503003649494936B0
:103A400000064949291E000036360000000056369F
:103A50000000000814224100001414141414000083
:103A60004122140800020151090600324959513E11
:103A7000007C1211127C007F49494936003E4141C9
:103A80004122007F4141221C007F49494941007F7A
:103A900009090901003E4149497A007F0808087F69
:103AA0000000417F4100002040413F01007F081499
:103AB0002241007F40404040007F020C027F007F97
:103AC0000408107F003E4141413E007F090909067C
:103AD000003E4151215E007F0919294600464949AF
:103AE00049310001017F0101003F4040403F001F7C
:103AF0002040201F003F4038403F006314081463FB
:103B000000070870080700615149454300007F41E4
:103B1000410000552A552A55000041417F0000040C
:103B20000201020400404040404000000102040045
:103B3000002054545478007F4844443800384444AA
:103B4000442000384444487F003854545418000836
:103B50007E0901020018A4A4A47C007F0804047854
:103B60000000447D4000004080847D00007F1028DC
:103B700044000000417F4000007C04180478007C71
:103B80000804047800384444443800FC24242418F1
:103B90000018242418FC007C08040408004854542D
:103BA000542000043F444020003C4040207C001C46
:103BB0002040201C003C4030403C00442810284459
:103BC000001CA0A0A07C004464544C4414141414A1
:103BD0001414000000000000000000000000F03F8E
:103BE000000000000000F83F00000000000000009E
:103BF0000000004003B8E23F0000000000000000A9
:103C000006D0CF43EBFD4C3E033333333333E33F36
:103C1000FFAB6FDBB66DDB3F4D268F515555D53F62
:103C200001411DA96074D13F65DBC9934A86CD3F30
:103C3000EF4E454A287ECA3F3E5555555555C53F1E
:103C400093BDBE166CC166BF2CDE25AF6A56113F10
:103C5000F16BD2C541BDBBBED0A4BE726937663E12
:103C60000000000000000000883C00080000002068
:103C70007C0800006C0100081C4100087C08002042
:103C800054070000C8010008100A694C443A30315A
:103C900069534D290A223184A24A04000A1E0102F6
:103CA0000304060708090172F84333301C100C06A0
:103CB00003912C40C07803112C043F0403212D7084
:103CC00088FC0829261820FF211E14F008F033E094
:103CD000184D211C031E11338870000C101E212367
:103CE000241927211010160E45E018040225071884
:103CF00020403D020418E0692C2018070717408077
:103D0000F08040403F0202010F0102283AF0CC1C33
:103D100001011F04912B80B066B1191D2901913A50
:103D200030CE492C146018043C6018061D1EE010AB
:103D3000080810721F0F102020100FF05310F836D3
:103D400020203F20203C700808C21E302824222159
:103D5000441E3008888848082E1820202011CC3BAB
:103D6000C0203227070424243F241AF820230808FF
:103D70004B19212036E0108888184B0F11101E387F
:103D80000808C8382021523F1A702E29608F1C2243
:103D90002121221C90111D31222211901961CAC0CB
:103DA000C26A80C659081C4020105017010204083E
:103DB00010204A4001114A04012119152A403219E4
:103DC000251B0402F21B7048D13AF0501A360F1E20
:103DD000C030C828E87028080718272423140B6F60
:103DE0002A387E280D203C23020227382008F88834
:103DF000889F4B203FF01BC0303F1B083830191004
:103E000019781B08F80F194039201B100F103E8835
:103E100088E8081010AC23201810112A035E2940EE
:103E2000223829402C221E024019A41809F8082023
:103E30003F21010121252A085229812942414911A6
:103E40002EC08080807F0E2FF888C0281808501C54
:103E50000126382F2940292F29801B20301012F8E5
:103E60001AF81413203F190229204B30C0601A2081
:103E700074123F4BE010B06B0F10B029D01AF03025
:103E80001980220179203F18242438504FC04C88D3
:103E90008870C0140C30204B7088C1173820212145
:103EA000221C3A189F4A188239A049D0112A1F9023
:103EB000121F240878881BC838151C07380E601993
:103EC0001A1AF8201114033C0714073C034814087D
:103ED0001868808068180820302C03032C302008D4
:103EE00038C82F5950298F29102F203826212020FB
:103EF000681145FE020202257F4040401A0CE06135
:103F00001C0106380B191D42FE191D527F1A04129E
:103F10000211045A80011930D91D391621180819C7
:103F2000242222223F20AB390F115F3F11202011A4
:103F30000E21311A0E104B2011104B88F8102A1048
:103F4000B359401A1F3F2B22130F16F08888881888
:103F50001A20D029D1497A21176B9494949360390F
:103F600060190F4C203F21F35480989879305912F2
:103F70001AC02719D1193039311F203F24022D30A2
:103F8000212A0812893069D7294B2903190BC960E6
:103F900079A019BF2B201FDD390F9C80FFA1E019EC
:103FA0001229D03BA0FF0C3950194112208A01C0C0
:103FB0001B3324012A190F3AE0413952290F3923C2
:103FC00049603C103F202C29053F010E30080601B6
:103FD00070291038080F300C030C300F2C49A14EFB
:103FE000312E0E31200C29621D818E70183059D16E
:103FF000215721302C22213055807C0202443F4041
:104000004072FF39083C02027C8F5440403F8008D8
:1040100006010102020404780E1010D0FF9014E48F
:10402000AFA4A4A4AFE416A11B040347480A894B1C
:104030002A1A0E1A2A4B88D9C12C10109001000997
:10404000121010FF101011161010082060203F10E1
:1040500010100712030C102040F82B0282013AFEC8
:104060000649C6D14A40015A7F0801133C806018B6
:10407000EB0513089020C0000C1481808040402084
:10408000130804020117202020FF20200F11F888B8
:1040900088FF88889F171030100F08080008121F2B
:1040A0000808FF08081F033F0F0F000F12FC84844D
:1040B00084FE141090101010FF10101A3F19323F98
:1040C000051F2340807F0913E1F156526F756E641E
:1040D000475371756172651808547269616E676C37
:1040E0000C28114261736B657462616C6C566F6C65
:1040F0006C65790A3C466F6F12193C234544F80AF7
:10410000475245454E424C55457E2C02030404203F
:0C41100009060708090204060800000068
:0400000508000131BD
:00000001FF
